<!DOCTYPE html>
<html lang="en-US">
  <head>
    <meta charset="utf-8">
    <meta name="viewport" content="width=device-width,initial-scale=1">
    <title>Smart Contract: Faucet | Komodo Developer Documentation</title>
    <meta name="description" content="Documentation for developers building on Komodo">
    
    
    <link rel="preload" href="/komodo-docs-vuepress/assets/css/0.styles.5978d221.css" as="style"><link rel="preload" href="/komodo-docs-vuepress/assets/js/app.98eba040.js" as="script"><link rel="preload" href="/komodo-docs-vuepress/assets/js/13.534e5eab.js" as="script"><link rel="prefetch" href="/komodo-docs-vuepress/assets/js/10.fa46c12f.js"><link rel="prefetch" href="/komodo-docs-vuepress/assets/js/11.726a5c6f.js"><link rel="prefetch" href="/komodo-docs-vuepress/assets/js/12.7addabd9.js"><link rel="prefetch" href="/komodo-docs-vuepress/assets/js/14.0559a178.js"><link rel="prefetch" href="/komodo-docs-vuepress/assets/js/15.dffcdf7f.js"><link rel="prefetch" href="/komodo-docs-vuepress/assets/js/16.7a650e46.js"><link rel="prefetch" href="/komodo-docs-vuepress/assets/js/17.3f20971f.js"><link rel="prefetch" href="/komodo-docs-vuepress/assets/js/18.7f8ee2ce.js"><link rel="prefetch" href="/komodo-docs-vuepress/assets/js/19.de14fddf.js"><link rel="prefetch" href="/komodo-docs-vuepress/assets/js/2.a3ae82a5.js"><link rel="prefetch" href="/komodo-docs-vuepress/assets/js/20.7c7a0ec4.js"><link rel="prefetch" href="/komodo-docs-vuepress/assets/js/21.c12abd42.js"><link rel="prefetch" href="/komodo-docs-vuepress/assets/js/22.ece0e705.js"><link rel="prefetch" href="/komodo-docs-vuepress/assets/js/23.53f9345e.js"><link rel="prefetch" href="/komodo-docs-vuepress/assets/js/24.c662a9ee.js"><link rel="prefetch" href="/komodo-docs-vuepress/assets/js/25.090afdcb.js"><link rel="prefetch" href="/komodo-docs-vuepress/assets/js/26.4d5afbf3.js"><link rel="prefetch" href="/komodo-docs-vuepress/assets/js/27.1d434e56.js"><link rel="prefetch" href="/komodo-docs-vuepress/assets/js/28.fc6d6dbd.js"><link rel="prefetch" href="/komodo-docs-vuepress/assets/js/29.fcbd228c.js"><link rel="prefetch" href="/komodo-docs-vuepress/assets/js/3.e79f4ad4.js"><link rel="prefetch" href="/komodo-docs-vuepress/assets/js/30.545998a0.js"><link rel="prefetch" href="/komodo-docs-vuepress/assets/js/4.94a2876e.js"><link rel="prefetch" href="/komodo-docs-vuepress/assets/js/5.f9b44f50.js"><link rel="prefetch" href="/komodo-docs-vuepress/assets/js/6.6ff6b9c0.js"><link rel="prefetch" href="/komodo-docs-vuepress/assets/js/7.8eca54e4.js"><link rel="prefetch" href="/komodo-docs-vuepress/assets/js/8.0ac769f5.js"><link rel="prefetch" href="/komodo-docs-vuepress/assets/js/9.537f8c75.js">
    <link rel="stylesheet" href="/komodo-docs-vuepress/assets/css/0.styles.5978d221.css">
  </head>
  <body>
    <div id="app" data-server-rendered="true"><div class="theme-container"><header class="navbar"><div class="sidebar-button"><svg xmlns="http://www.w3.org/2000/svg" aria-hidden="true" role="img" viewBox="0 0 448 512" class="icon"><path fill="currentColor" d="M436 124H12c-6.627 0-12-5.373-12-12V80c0-6.627 5.373-12 12-12h424c6.627 0 12 5.373 12 12v32c0 6.627-5.373 12-12 12zm0 160H12c-6.627 0-12-5.373-12-12v-32c0-6.627 5.373-12 12-12h424c6.627 0 12 5.373 12 12v32c0 6.627-5.373 12-12 12zm0 160H12c-6.627 0-12-5.373-12-12v-32c0-6.627 5.373-12 12-12h424c6.627 0 12 5.373 12 12v32c0 6.627-5.373 12-12 12z"></path></svg></div> <a href="/komodo-docs-vuepress/" class="home-link router-link-active"><!----> <span class="site-name">Komodo Developer Documentation</span></a> <div class="links" style="max-width:nullpx;"><div class="search-box"><input aria-label="Search" autocomplete="off" spellcheck="false" value=""> <!----></div> <nav class="nav-links can-hide"><div class="nav-item"><a href="/komodo-docs-vuepress/000-start-here/_001-introduction.html" class="nav-link">Start Here</a></div><div class="nav-item"><a href="https://komodoplatform.com" target="_blank" rel="noopener noreferrer" class="nav-link external">
  KomodoPlatform.com
  <svg xmlns="http://www.w3.org/2000/svg" aria-hidden="true" x="0px" y="0px" viewBox="0 0 100 100" width="15" height="15" class="icon outbound"><path fill="currentColor" d="M18.8,85.1h56l0,0c2.2,0,4-1.8,4-4v-32h-8v28h-48v-48h28v-8h-32l0,0c-2.2,0-4,1.8-4,4v56C14.8,83.3,16.6,85.1,18.8,85.1z"></path> <polygon fill="currentColor" points="45.7,48.7 51.3,54.3 77.2,28.5 77.2,37.2 85.2,37.2 85.2,14.9 62.8,14.9 62.8,22.9 71.5,22.9"></polygon></svg></a></div> <!----></nav></div></header> <div class="sidebar-mask"></div> <div class="sidebar"><nav class="nav-links"><div class="nav-item"><a href="/komodo-docs-vuepress/000-start-here/_001-introduction.html" class="nav-link">Start Here</a></div><div class="nav-item"><a href="https://komodoplatform.com" target="_blank" rel="noopener noreferrer" class="nav-link external">
  KomodoPlatform.com
  <svg xmlns="http://www.w3.org/2000/svg" aria-hidden="true" x="0px" y="0px" viewBox="0 0 100 100" width="15" height="15" class="icon outbound"><path fill="currentColor" d="M18.8,85.1h56l0,0c2.2,0,4-1.8,4-4v-32h-8v28h-48v-48h28v-8h-32l0,0c-2.2,0-4,1.8-4,4v56C14.8,83.3,16.6,85.1,18.8,85.1z"></path> <polygon fill="currentColor" points="45.7,48.7 51.3,54.3 77.2,28.5 77.2,37.2 85.2,37.2 85.2,14.9 62.8,14.9 62.8,22.9 71.5,22.9"></polygon></svg></a></div> <!----></nav>  <ul class="sidebar-links"><li><div class="sidebar-group first collapsable"><p class="sidebar-heading"><span>Start Here</span> <span class="arrow right"></span></p> <!----></div></li><li><div class="sidebar-group collapsable"><p class="sidebar-heading"><span>Installation and Setup</span> <span class="arrow right"></span></p> <!----></div></li><li><div class="sidebar-group collapsable"><p class="sidebar-heading open"><span>CryptoConditions (Smart Contract Templates)</span> <span class="arrow down"></span></p> <ul class="sidebar-group-items"><li><a href="/komodo-docs-vuepress/010-cryptoconditions/_101-cryptoconditions-instructions.html" class="sidebar-link">Instructions for CryptoConditions</a></li><li><a href="/komodo-docs-vuepress/010-cryptoconditions/_110-cc-channels.html" class="sidebar-link">Channels</a></li><li><a href="/komodo-docs-vuepress/010-cryptoconditions/_120-cc-dice.html" class="sidebar-link">Dice</a></li><li><a href="/komodo-docs-vuepress/010-cryptoconditions/_130-cc-faucet.html" class="active sidebar-link">Faucet</a><ul class="sidebar-sub-headers"><li class="sidebar-sub-header"><a href="/komodo-docs-vuepress/010-cryptoconditions/_130-cc-faucet.html#faucetaddress" class="sidebar-link">faucetaddress</a></li><li class="sidebar-sub-header"><a href="/komodo-docs-vuepress/010-cryptoconditions/_130-cc-faucet.html#faucetfund" class="sidebar-link">faucetfund</a></li><li class="sidebar-sub-header"><a href="/komodo-docs-vuepress/010-cryptoconditions/_130-cc-faucet.html#faucetget" class="sidebar-link">faucetget</a></li><li class="sidebar-sub-header"><a href="/komodo-docs-vuepress/010-cryptoconditions/_130-cc-faucet.html#faucetinfo" class="sidebar-link">faucetinfo</a></li></ul></li><li><a href="/komodo-docs-vuepress/010-cryptoconditions/_133-cc-gateways.html" class="sidebar-link">Gateways</a></li><li><a href="/komodo-docs-vuepress/010-cryptoconditions/_135-cc-oracles.html" class="sidebar-link">Oracles</a></li><li><a href="/komodo-docs-vuepress/010-cryptoconditions/_140-cc-rewards.html" class="sidebar-link">Rewards</a></li><li><a href="/komodo-docs-vuepress/010-cryptoconditions/_150-cc-tokens.html" class="sidebar-link">Tokens</a></li></ul></div></li><li><div class="sidebar-group collapsable"><p class="sidebar-heading"><span>Essential RPC Calls</span> <span class="arrow right"></span></p> <!----></div></li></ul> </div> <div class="page"> <div class="content"><h1 id="smart-contract-faucet"><a href="#smart-contract-faucet" aria-hidden="true" class="header-anchor">#</a> Smart Contract: Faucet</h1> <p>The <code>faucet</code> CryptoConditions smart contract enables anyone to set up and operate an on-chain faucet.</p> <p>There may only be one <code>faucet</code> contract per asset chain.</p> <p>For any faucet, there is a public address to which anyone can send their funds to support the faucet.</p> <p>A <code>faucet</code> rpc call can be executed by anyone on the asset chain, as long as their public address satisfies a few constraints: the user's pubkey and address must have no history of funds or transactions, and an address can claim faucet funds only once.</p> <p>The <a href="#faucetget"><code>faucetget</code></a> is the rpc call that executes the <code>faucet</code> contract, and the rpc call requires the user to perform a small PoW calculation. This deters leechers.</p> <p>When called, <code>faucet</code> sends 0.1 coins to the indicated address, and requires about 30 seconds of CPU time.</p> <h2 id="faucetaddress"><a href="#faucetaddress" aria-hidden="true" class="header-anchor">#</a> faucetaddress</h2> <p><strong>faucetaddress [pubkey]</strong></p> <p>The <code>faucetaddress</code> method returns the CC address information for the requested pubkey. If no pubkey is provided, the method returns information for the pubkey used to launch the daemon.</p> <h3 id="arguments"><a href="#arguments" aria-hidden="true" class="header-anchor">#</a> Arguments:</h3> <table><thead><tr><th>Structure</th> <th>Type</th> <th>Description</th></tr></thead> <tbody><tr><td>pubkey</td> <td>(string, optional)</td> <td>the desired pubkey; the method uses the pubkey used to launch the daemon if no pubkey is provided</td></tr></tbody></table> <h3 id="response"><a href="#response" aria-hidden="true" class="header-anchor">#</a> Response:</h3> <table><thead><tr><th>Structure</th> <th>Type</th> <th>Description</th></tr></thead> <tbody><tr><td>FaucetCCaddress</td> <td>(string)</td> <td>taking the faucet contract's EVAL code as a modifier, this is the public address that corresponds to the faucet contract's privkey</td></tr> <tr><td>CCaddress</td> <td>(string)</td> <td>taking the faucet contract's EVAL code as a modifier, this is the CC address from the pubkey of the user</td></tr> <tr><td>myCCaddress</td> <td>(string)</td> <td>taking the dice contract's EVAL code as a modifier, this is the CC address from the pubkey of the user</td></tr> <tr><td>myaddress</td> <td>(string)</td> <td>the unmodified public address of the pubkey used to launch the chain</td></tr></tbody></table> <h3 id="examples"><a href="#examples" aria-hidden="true" class="header-anchor">#</a> Examples:</h3> <blockquote><p>Command:</p></blockquote> <div class="language- extra-class"><pre class="language-text"><code>./komodo-cli -ac_name=HELLOWORLD faucetaddress 03fe754763c176e1339a3f62ee6b9484720e17ee4646b65a119e9f6370c7004abc
</code></pre></div><blockquote><p>Response:</p></blockquote> <div class="language- extra-class"><pre class="language-text"><code>{
  &quot;result&quot;: &quot;success&quot;,
  &quot;FaucetCCaddress&quot;: &quot;RSxACZQhskPjQyxp7TUPG1oP1wm4agFycJ&quot;,
  &quot;CCaddress&quot;: &quot;RSxACZQhskPjQyxp7TUPG1oP1wm4agFycJ&quot;,
  &quot;myCCaddress&quot;: &quot;RSxACZQhskPjQyxp7TUPG1oP1wm4agFycJ&quot;,
  &quot;myaddress&quot;: &quot;RANyPgfZZLhSjQB9jrzztSw66zMMYDZuxQ&quot;
}
</code></pre></div><h2 id="faucetfund"><a href="#faucetfund" aria-hidden="true" class="header-anchor">#</a> faucetfund</h2> <p><strong>faucetfund amount</strong></p> <p>The <code>faucetfund</code> method creates and funds a faucet contract.</p> <p>The method returns a hex value which must then be broadcast using the <a href="#sendrawtransaction"><code>sendrawtransaction</code></a> method.</p> <h3 id="arguments-2"><a href="#arguments-2" aria-hidden="true" class="header-anchor">#</a> Arguments:</h3> <table><thead><tr><th>Structure</th> <th>Type</th> <th>Description</th></tr></thead> <tbody><tr><td>amount</td> <td>(number)</td> <td>the amount to add to the faucet, taken from the user's available funds</td></tr></tbody></table> <h3 id="response-2"><a href="#response-2" aria-hidden="true" class="header-anchor">#</a> Response:</h3> <table><thead><tr><th>Structure</th> <th>Type</th> <th>Description</th></tr></thead> <tbody><tr><td>result</td> <td>(string)</td> <td>whether the command executed successfully</td></tr> <tr><td>hex</td> <td>(string)</td> <td>the data in hex-encoded format; you must broadcast this hex using sendrawtransaction for the command to complete</td></tr></tbody></table> <h3 id="examples-2"><a href="#examples-2" aria-hidden="true" class="header-anchor">#</a> Examples:</h3> <blockquote><p>Step 1: Specify faucet amount and get the raw transaction HEX value</p></blockquote> <div class="language- extra-class"><pre class="language-text"><code>./komodo-cli -ac_name=HELLOWORLD faucetfund 100
</code></pre></div><blockquote><p>Response from Step 1:</p></blockquote> <div class="language- extra-class"><pre class="language-text"><code>{
  &quot;result&quot;: &quot;success&quot;,
  &quot;hex&quot;: &quot;01000000013c34d14c6a32219f4b633a1fe01f5826b3bd7b4cbe01c20cfc0c29138d9c99720100000049483045022100b265993f541d580f10e8820f9986bdd479859fdcb2e636dd1ee1b23506eebeac02202234a6e5141345459c4b4959e921aa85b9fa616f4c44ea15e53d08bf4885259501ffffffff0200e40b5402000000302ea22c8020e029c511da55523565835887e412e5a0c9b920801b007000df45e545f25028248103120c008203000401cce06d66fa15090000232103fe754763c176e1339a3f62ee6b9484720e17ee4646b65a119e9f6370c7004abcac00000000&quot;
}
</code></pre></div><blockquote><p>Step 2: Broadcast/send raw transaction</p></blockquote> <div class="language- extra-class"><pre class="language-text"><code>./komodo-cli -ac_name=HELLOWORLD sendrawtransaction 01000000013c34d14c6a32219f4b633a1fe01f5826b3bd7b4cbe01c20cfc0c29138d9c99720100000049483045022100b265993f541d580f10e8820f9986bdd479859fdcb2e636dd1ee1b23506eebeac02202234a6e5141345459c4b4959e921aa85b9fa616f4c44ea15e53d08bf4885259501ffffffff0200e40b5402000000302ea22c8020e029c511da55523565835887e412e5a0c9b920801b007000df45e545f25028248103120c008203000401cce06d66fa15090000232103fe754763c176e1339a3f62ee6b9484720e17ee4646b65a119e9f6370c7004abcac00000000
</code></pre></div><blockquote><p>Response from Step 2:</p></blockquote> <div class="language- extra-class"><pre class="language-text"><code>    f2baf8d9a1eaf42bb1a85462b5699ffc0f04e8c54aafc4661767df96be9022b7
</code></pre></div><blockquote><p>Step 3: Decode raw transaction (optional to check if the values are sane)</p></blockquote> <div class="language- extra-class"><pre class="language-text"><code>./komodo-cli -ac_name=HELLOWORLD decoderawtransaction 01000000013c34d14c6a32219f4b633a1fe01f5826b3bd7b4cbe01c20cfc0c29138d9c99720100000049483045022100b265993f541d580f10e8820f9986bdd479859fdcb2e636dd1ee1b23506eebeac02202234a6e5141345459c4b4959e921aa85b9fa616f4c44ea15e53d08bf4885259501ffffffff0200e40b5402000000302ea22c8020e029c511da55523565835887e412e5a0c9b920801b007000df45e545f25028248103120c008203000401cce06d66fa15090000232103fe754763c176e1339a3f62ee6b9484720e17ee4646b65a119e9f6370c7004abcac00000000
</code></pre></div><blockquote><p>Response from Step 3</p></blockquote> <div class="language- extra-class"><pre class="language-text"><code>{
    &quot;txid&quot;: &quot;f2baf8d9a1eaf42bb1a85462b5699ffc0f04e8c54aafc4661767df96be9022b7&quot;,
    &quot;size&quot;: 225,
    &quot;version&quot;: 1,
    &quot;locktime&quot;: 0,
    &quot;vin&quot;: [
        {
            &quot;txid&quot;: &quot;72999c8d13290cfc0cc201be4c7bbdb326581fe01f3a634b9f21326a4cd1343c&quot;,
            &quot;vout&quot;: 1,
            &quot;scriptSig&quot;: {
                &quot;asm&quot;: &quot;3045022100b265993f541d580f10e8820f9986bdd479859fdcb2e636dd1ee1b23506eebeac02202234a6e5141345459c4b4959e921aa85b9fa616f4c44ea15e53d08bf4885259501&quot;,
                &quot;hex&quot;: &quot;483045022100b265993f541d580f10e8820f9986bdd479859fdcb2e636dd1ee1b23506eebeac02202234a6e5141345459c4b4959e921aa85b9fa616f4c44ea15e53d08bf4885259501&quot;
            },
            &quot;sequence&quot;: 4294967295
        }
    ],
    &quot;vout&quot;: [
        {
            &quot;value&quot;: 100.00000000,
            &quot;valueSat&quot;: 10000000000,
            &quot;n&quot;: 0,
            &quot;scriptPubKey&quot;: {
                &quot;asm&quot;: &quot;a22c8020e029c511da55523565835887e412e5a0c9b920801b007000df45e545f25028248103120c008203000401 OP_CHECKCRYPTOCONDITION&quot;,
                &quot;hex&quot;: &quot;2ea22c8020e029c511da55523565835887e412e5a0c9b920801b007000df45e545f25028248103120c008203000401cc&quot;,
                &quot;reqSigs&quot;: 1,
                &quot;type&quot;: &quot;cryptocondition&quot;,
                &quot;addresses&quot;: [
                    &quot;R9zHrofhRbub7ER77B7NrVch3A63R39GuC&quot;
                ]
            }
        },
        {
            &quot;value&quot;: 99899.99980000,
            &quot;valueSat&quot;: 9989999980000,
            &quot;n&quot;: 1,
            &quot;scriptPubKey&quot;: {
                &quot;asm&quot;: &quot;03fe754763c176e1339a3f62ee6b9484720e17ee4646b65a119e9f6370c7004abc OP_CHECKSIG&quot;,
                &quot;hex&quot;: &quot;2103fe754763c176e1339a3f62ee6b9484720e17ee4646b65a119e9f6370c7004abcac&quot;,
                &quot;reqSigs&quot;: 1,
                &quot;type&quot;: &quot;pubkey&quot;,
                &quot;addresses&quot;: [
                    &quot;RANyPgfZZLhSjQB9jrzztSw66zMMYDZuxQ&quot;
                ]
            }
        }
    ]
}
</code></pre></div><h2 id="faucetget"><a href="#faucetget" aria-hidden="true" class="header-anchor">#</a> faucetget</h2> <p><strong>faucetget</strong></p> <p>The <code>faucetget</code> method requests the <code>faucet</code> contract to send coins.</p> <p>The method returns a hex value which must then be broadcast using the <a href="#sendrawtransaction"><code>sendrawtransaction</code></a> method.</p> <p>A <code>faucet</code> command yields 0.1 coins and requires about 30 seconds of CPU time.</p> <h3 id="arguments-3"><a href="#arguments-3" aria-hidden="true" class="header-anchor">#</a> Arguments:</h3> <table><thead><tr><th>Structure</th> <th>Type</th> <th>Description</th></tr></thead> <tbody><tr><td>(none)</td> <td></td> <td></td></tr></tbody></table> <h3 id="response-3"><a href="#response-3" aria-hidden="true" class="header-anchor">#</a> Response:</h3> <table><thead><tr><th>Structure</th> <th>Type</th> <th>Description</th></tr></thead> <tbody><tr><td>result</td> <td>(string)</td> <td>whether the command executed successfully</td></tr> <tr><td>hex</td> <td>(string)</td> <td>the data in hex-encoded format; you must broadcast this hex using sendrawtransaction for the command to complete</td></tr></tbody></table> <h3 id="examples-3"><a href="#examples-3" aria-hidden="true" class="header-anchor">#</a> Examples:</h3> <blockquote><p>Step 1: Use faucetget and get the raw HEX value</p></blockquote> <div class="language- extra-class"><pre class="language-text"><code>./komodo-cli -ac_name=HELLOWORLD faucetget
</code></pre></div><blockquote><p>Response from Step 1:</p></blockquote> <div class="language- extra-class"><pre class="language-text"><code>{
  &quot;result&quot;: &quot;success&quot;,
  &quot;hex&quot;: &quot;01000000010941cea65a560aeae02f0d49770965490bd99eeac4185f25075685da58e99d40000000007b4c79a276a072a26ba067a565802103682b255c40d0cde8faee381a1a50bbb89980ff24539cb8518e294d3a63cefe128140150ad95012ad8fae990096787d75d563977cef914e812e9dc8b6236243ac5f0050b3af4f2675ad433dcff4be16d113fb9a46357ee60682ed5d76c60f9ccffe8ea100af038001e4a10001ffffffff02b077a43018090000302ea22c8020e029c511da55523565835887e412e5a0c9b920801b007000df45e545f25028248103120c008203000401cc00e1f50500000000232103fe754763c176e1339a3f62ee6b9484720e17ee4646b65a119e9f6370c7004abcac00000000&quot;
  }
</code></pre></div><blockquote><p>Step 2: Broadcast/send the raw transaction</p></blockquote> <div class="language- extra-class"><pre class="language-text"><code>./komodo-cli -ac_name=HELLOWORLD sendrawtransaction 01000000010941cea65a560aeae02f0d49770965490bd99eeac4185f25075685da58e99d40000000007b4c79a276a072a26ba067a565802103682b255c40d0cde8faee381a1a50bbb89980ff24539cb8518e294d3a63cefe128140150ad95012ad8fae990096787d75d563977cef914e812e9dc8b6236243ac5f0050b3af4f2675ad433dcff4be16d113fb9a46357ee60682ed5d76c60f9ccffe8ea100af038001e4a10001ffffffff02b077a43018090000302ea22c8020e029c511da55523565835887e412e5a0c9b920801b007000df45e545f25028248103120c008203000401cc00e1f50500000000232103fe754763c176e1339a3f62ee6b9484720e17ee4646b65a119e9f6370c7004abcac00000000
</code></pre></div><blockquote><p>Response from Step 2:</p></blockquote> <div class="language- extra-class"><pre class="language-text"><code>faucetget validated
64760e66c49df97eea14896ecdd505d2d78ea214eb583c8a6a0ac863b2b989b3
</code></pre></div><blockquote><p>Step 3: Decode the raw transaction (optional to check if the value are sane)</p></blockquote> <div class="language- extra-class"><pre class="language-text"><code>./komodo-cli -ac_name=HELLOWORLD decoderawtransaction 01000000010941cea65a560aeae02f0d49770965490bd99eeac4185f25075685da58e99d40000000007b4c79a276a072a26ba067a565802103682b255c40d0cde8faee381a1a50bbb89980ff24539cb8518e294d3a63cefe128140150ad95012ad8fae990096787d75d563977cef914e812e9dc8b6236243ac5f0050b3af4f2675ad433dcff4be16d113fb9a46357ee60682ed5d76c60f9ccffe8ea100af038001e4a10001ffffffff02b077a43018090000302ea22c8020e029c511da55523565835887e412e5a0c9b920801b007000df45e545f25028248103120c008203000401cc00e1f50500000000232103fe754763c176e1339a3f62ee6b9484720e17ee4646b65a119e9f6370c7004abcac00000000
</code></pre></div><blockquote><p>Response from Step 3:</p></blockquote> <div class="language- extra-class"><pre class="language-text"><code>{
    &quot;txid&quot;: &quot;64760e66c49df97eea14896ecdd505d2d78ea214eb583c8a6a0ac863b2b989b3&quot;,
    &quot;size&quot;: 275,
    &quot;version&quot;: 1,
    &quot;locktime&quot;: 0,
    &quot;vin&quot;: [
        {
            &quot;txid&quot;: &quot;409de958da855607255f18c4ea9ed90b49650977490d2fe0ea0a565aa6ce4109&quot;,
            &quot;vout&quot;: 0,
            &quot;scriptSig&quot;: {
                &quot;asm&quot;: &quot;a276a072a26ba067a565802103682b255c40d0cde8faee381a1a50bbb89980ff24539cb8518e294d3a63cefe128140150ad95012ad8fae990096787d75d563977cef914e812e9dc8b6236243ac5f0050b3af4f2675ad433dcff4be16d113fb9a46357ee60682ed5d76c60f9ccffe8ea100af038001e4a10001&quot;,
                &quot;hex&quot;: &quot;4c79a276a072a26ba067a565802103682b255c40d0cde8faee381a1a50bbb89980ff24539cb8518e294d3a63cefe128140150ad95012ad8fae990096787d75d563977cef914e812e9dc8b6236243ac5f0050b3af4f2675ad433dcff4be16d113fb9a46357ee60682ed5d76c60f9ccffe8ea100af038001e4a10001&quot;
            },
            &quot;sequence&quot;: 4294967295
        }
    ],
    &quot;vout&quot;: [
        {
            &quot;value&quot;: 99994.99950000,
            &quot;valueSat&quot;: 9999499950000,
            &quot;n&quot;: 0,
            &quot;scriptPubKey&quot;: {
                &quot;asm&quot;: &quot;a22c8020e029c511da55523565835887e412e5a0c9b920801b007000df45e545f25028248103120c008203000401 OP_CHECKCRYPTOCONDITION&quot;,
                &quot;hex&quot;: &quot;2ea22c8020e029c511da55523565835887e412e5a0c9b920801b007000df45e545f25028248103120c008203000401cc&quot;,
                &quot;reqSigs&quot;: 1,
                &quot;type&quot;: &quot;cryptocondition&quot;,
                &quot;addresses&quot;: [
                    &quot;R9zHrofhRbub7ER77B7NrVch3A63R39GuC&quot;
                ]
            }
        },
        {
            &quot;value&quot;: 1.00000000,
            &quot;valueSat&quot;: 100000000,
            &quot;n&quot;: 1,
            &quot;scriptPubKey&quot;: {
                &quot;asm&quot;: &quot;03fe754763c176e1339a3f62ee6b9484720e17ee4646b65a119e9f6370c7004abc OP_CHECKSIG&quot;,
                &quot;hex&quot;: &quot;2103fe754763c176e1339a3f62ee6b9484720e17ee4646b65a119e9f6370c7004abcac&quot;,
                &quot;reqSigs&quot;: 1,
                &quot;type&quot;: &quot;pubkey&quot;,
                &quot;addresses&quot;: [
                    &quot;RANyPgfZZLhSjQB9jrzztSw66zMMYDZuxQ&quot;
                ]
            }
        }
    ]
}
</code></pre></div><h2 id="faucetinfo"><a href="#faucetinfo" aria-hidden="true" class="header-anchor">#</a> faucetinfo</h2> <p><strong>faucetinfo</strong></p> <p>The <code>faucetinfo</code> method displays the balance of funds in the chain's faucet.</p> <h3 id="arguments-4"><a href="#arguments-4" aria-hidden="true" class="header-anchor">#</a> Arguments:</h3> <table><thead><tr><th>Structure</th> <th>Type</th> <th>Description</th></tr></thead> <tbody><tr><td>(none)</td> <td></td> <td></td></tr></tbody></table> <h3 id="response-4"><a href="#response-4" aria-hidden="true" class="header-anchor">#</a> Response:</h3> <table><thead><tr><th>Structure</th> <th>Type</th> <th>Description</th></tr></thead> <tbody><tr><td>result</td> <td>(string)</td> <td>whether the command executed successfully</td></tr> <tr><td>name</td> <td>(string)</td> <td>the name of the faucet contract</td></tr> <tr><td>funding</td> <td>(number)</td> <td>the amount of funds available in the faucet</td></tr></tbody></table> <h3 id="examples-4"><a href="#examples-4" aria-hidden="true" class="header-anchor">#</a> Examples:</h3> <blockquote><p>Command:</p></blockquote> <div class="language- extra-class"><pre class="language-text"><code>./komodo-cli -ac_name=HELLOWORLD faucetinfo
</code></pre></div><blockquote><p>Response:</p></blockquote> <div class="language- extra-class"><pre class="language-text"><code>{
  &quot;result&quot;: &quot;success&quot;,
  &quot;name&quot;: &quot;Faucet&quot;,
  &quot;funding&quot;: &quot;200207.99860023&quot;
}
</code></pre></div></div> <div class="page-edit"><!----> <!----></div> <div class="page-nav"><p class="inner"><span class="prev">
        ←
        <a href="/komodo-docs-vuepress/010-cryptoconditions/_120-cc-dice.html" class="prev">
          Dice
        </a></span> <span class="next"><a href="/komodo-docs-vuepress/010-cryptoconditions/_133-cc-gateways.html">
          Gateways
        </a>
        →
      </span></p></div> </div> <!----></div></div>
    <script src="/komodo-docs-vuepress/assets/js/13.534e5eab.js" defer></script><script src="/komodo-docs-vuepress/assets/js/app.98eba040.js" defer></script>
  </body>
</html>
