(window.webpackJsonp=window.webpackJsonp||[]).push([[13],{164:function(e,a,t){"use strict";t.r(a);var c=t(0),s=Object(c.a)({},function(){this.$createElement;this._self._c;return this._m(0)},[function(){var e=this,a=e.$createElement,t=e._self._c||a;return t("div",{staticClass:"content"},[t("h1",{attrs:{id:"smart-contract-faucet"}},[t("a",{staticClass:"header-anchor",attrs:{href:"#smart-contract-faucet","aria-hidden":"true"}},[e._v("#")]),e._v(" Smart Contract: Faucet")]),e._v(" "),t("p",[e._v("The "),t("code",[e._v("faucet")]),e._v(" CryptoConditions smart contract enables anyone to set up and operate an on-chain faucet.")]),e._v(" "),t("p",[e._v("There may only be one "),t("code",[e._v("faucet")]),e._v(" contract per asset chain.")]),e._v(" "),t("p",[e._v("For any faucet, there is a public address to which anyone can send their funds to support the faucet.")]),e._v(" "),t("p",[e._v("A "),t("code",[e._v("faucet")]),e._v(" rpc call can be executed by anyone on the asset chain, as long as their public address satisfies a few constraints: the user's pubkey and address must have no history of funds or transactions, and an address can claim faucet funds only once.")]),e._v(" "),t("p",[e._v("The "),t("a",{attrs:{href:"#faucetget"}},[t("code",[e._v("faucetget")])]),e._v(" is the rpc call that executes the "),t("code",[e._v("faucet")]),e._v(" contract, and the rpc call requires the user to perform a small PoW calculation. This deters leechers.")]),e._v(" "),t("p",[e._v("When called, "),t("code",[e._v("faucet")]),e._v(" sends 0.1 coins to the indicated address, and requires about 30 seconds of CPU time.")]),e._v(" "),t("h2",{attrs:{id:"faucetaddress"}},[t("a",{staticClass:"header-anchor",attrs:{href:"#faucetaddress","aria-hidden":"true"}},[e._v("#")]),e._v(" faucetaddress")]),e._v(" "),t("p",[t("strong",[e._v("faucetaddress [pubkey]")])]),e._v(" "),t("p",[e._v("The "),t("code",[e._v("faucetaddress")]),e._v(" method returns the CC address information for the requested pubkey. If no pubkey is provided, the method returns information for the pubkey used to launch the daemon.")]),e._v(" "),t("h3",{attrs:{id:"arguments"}},[t("a",{staticClass:"header-anchor",attrs:{href:"#arguments","aria-hidden":"true"}},[e._v("#")]),e._v(" Arguments:")]),e._v(" "),t("table",[t("thead",[t("tr",[t("th",[e._v("Structure")]),e._v(" "),t("th",[e._v("Type")]),e._v(" "),t("th",[e._v("Description")])])]),e._v(" "),t("tbody",[t("tr",[t("td",[e._v("pubkey")]),e._v(" "),t("td",[e._v("(string, optional)")]),e._v(" "),t("td",[e._v("the desired pubkey; the method uses the pubkey used to launch the daemon if no pubkey is provided")])])])]),e._v(" "),t("h3",{attrs:{id:"response"}},[t("a",{staticClass:"header-anchor",attrs:{href:"#response","aria-hidden":"true"}},[e._v("#")]),e._v(" Response:")]),e._v(" "),t("table",[t("thead",[t("tr",[t("th",[e._v("Structure")]),e._v(" "),t("th",[e._v("Type")]),e._v(" "),t("th",[e._v("Description")])])]),e._v(" "),t("tbody",[t("tr",[t("td",[e._v("FaucetCCaddress")]),e._v(" "),t("td",[e._v("(string)")]),e._v(" "),t("td",[e._v("taking the faucet contract's EVAL code as a modifier, this is the public address that corresponds to the faucet contract's privkey")])]),e._v(" "),t("tr",[t("td",[e._v("CCaddress")]),e._v(" "),t("td",[e._v("(string)")]),e._v(" "),t("td",[e._v("taking the faucet contract's EVAL code as a modifier, this is the CC address from the pubkey of the user")])]),e._v(" "),t("tr",[t("td",[e._v("myCCaddress")]),e._v(" "),t("td",[e._v("(string)")]),e._v(" "),t("td",[e._v("taking the dice contract's EVAL code as a modifier, this is the CC address from the pubkey of the user")])]),e._v(" "),t("tr",[t("td",[e._v("myaddress")]),e._v(" "),t("td",[e._v("(string)")]),e._v(" "),t("td",[e._v("the unmodified public address of the pubkey used to launch the chain")])])])]),e._v(" "),t("h3",{attrs:{id:"examples"}},[t("a",{staticClass:"header-anchor",attrs:{href:"#examples","aria-hidden":"true"}},[e._v("#")]),e._v(" Examples:")]),e._v(" "),t("blockquote",[t("p",[e._v("Command:")])]),e._v(" "),t("div",{staticClass:"language- extra-class"},[t("pre",{pre:!0,attrs:{class:"language-text"}},[t("code",[e._v("./komodo-cli -ac_name=HELLOWORLD faucetaddress 03fe754763c176e1339a3f62ee6b9484720e17ee4646b65a119e9f6370c7004abc\n")])])]),t("blockquote",[t("p",[e._v("Response:")])]),e._v(" "),t("div",{staticClass:"language- extra-class"},[t("pre",{pre:!0,attrs:{class:"language-text"}},[t("code",[e._v('{\n  "result": "success",\n  "FaucetCCaddress": "RSxACZQhskPjQyxp7TUPG1oP1wm4agFycJ",\n  "CCaddress": "RSxACZQhskPjQyxp7TUPG1oP1wm4agFycJ",\n  "myCCaddress": "RSxACZQhskPjQyxp7TUPG1oP1wm4agFycJ",\n  "myaddress": "RANyPgfZZLhSjQB9jrzztSw66zMMYDZuxQ"\n}\n')])])]),t("h2",{attrs:{id:"faucetfund"}},[t("a",{staticClass:"header-anchor",attrs:{href:"#faucetfund","aria-hidden":"true"}},[e._v("#")]),e._v(" faucetfund")]),e._v(" "),t("p",[t("strong",[e._v("faucetfund amount")])]),e._v(" "),t("p",[e._v("The "),t("code",[e._v("faucetfund")]),e._v(" method creates and funds a faucet contract.")]),e._v(" "),t("p",[e._v("The method returns a hex value which must then be broadcast using the "),t("a",{attrs:{href:"#sendrawtransaction"}},[t("code",[e._v("sendrawtransaction")])]),e._v(" method.")]),e._v(" "),t("h3",{attrs:{id:"arguments-2"}},[t("a",{staticClass:"header-anchor",attrs:{href:"#arguments-2","aria-hidden":"true"}},[e._v("#")]),e._v(" Arguments:")]),e._v(" "),t("table",[t("thead",[t("tr",[t("th",[e._v("Structure")]),e._v(" "),t("th",[e._v("Type")]),e._v(" "),t("th",[e._v("Description")])])]),e._v(" "),t("tbody",[t("tr",[t("td",[e._v("amount")]),e._v(" "),t("td",[e._v("(number)")]),e._v(" "),t("td",[e._v("the amount to add to the faucet, taken from the user's available funds")])])])]),e._v(" "),t("h3",{attrs:{id:"response-2"}},[t("a",{staticClass:"header-anchor",attrs:{href:"#response-2","aria-hidden":"true"}},[e._v("#")]),e._v(" Response:")]),e._v(" "),t("table",[t("thead",[t("tr",[t("th",[e._v("Structure")]),e._v(" "),t("th",[e._v("Type")]),e._v(" "),t("th",[e._v("Description")])])]),e._v(" "),t("tbody",[t("tr",[t("td",[e._v("result")]),e._v(" "),t("td",[e._v("(string)")]),e._v(" "),t("td",[e._v("whether the command executed successfully")])]),e._v(" "),t("tr",[t("td",[e._v("hex")]),e._v(" "),t("td",[e._v("(string)")]),e._v(" "),t("td",[e._v("the data in hex-encoded format; you must broadcast this hex using sendrawtransaction for the command to complete")])])])]),e._v(" "),t("h3",{attrs:{id:"examples-2"}},[t("a",{staticClass:"header-anchor",attrs:{href:"#examples-2","aria-hidden":"true"}},[e._v("#")]),e._v(" Examples:")]),e._v(" "),t("blockquote",[t("p",[e._v("Step 1: Specify faucet amount and get the raw transaction HEX value")])]),e._v(" "),t("div",{staticClass:"language- extra-class"},[t("pre",{pre:!0,attrs:{class:"language-text"}},[t("code",[e._v("./komodo-cli -ac_name=HELLOWORLD faucetfund 100\n")])])]),t("blockquote",[t("p",[e._v("Response from Step 1:")])]),e._v(" "),t("div",{staticClass:"language- extra-class"},[t("pre",{pre:!0,attrs:{class:"language-text"}},[t("code",[e._v('{\n  "result": "success",\n  "hex": "01000000013c34d14c6a32219f4b633a1fe01f5826b3bd7b4cbe01c20cfc0c29138d9c99720100000049483045022100b265993f541d580f10e8820f9986bdd479859fdcb2e636dd1ee1b23506eebeac02202234a6e5141345459c4b4959e921aa85b9fa616f4c44ea15e53d08bf4885259501ffffffff0200e40b5402000000302ea22c8020e029c511da55523565835887e412e5a0c9b920801b007000df45e545f25028248103120c008203000401cce06d66fa15090000232103fe754763c176e1339a3f62ee6b9484720e17ee4646b65a119e9f6370c7004abcac00000000"\n}\n')])])]),t("blockquote",[t("p",[e._v("Step 2: Broadcast/send raw transaction")])]),e._v(" "),t("div",{staticClass:"language- extra-class"},[t("pre",{pre:!0,attrs:{class:"language-text"}},[t("code",[e._v("./komodo-cli -ac_name=HELLOWORLD sendrawtransaction 01000000013c34d14c6a32219f4b633a1fe01f5826b3bd7b4cbe01c20cfc0c29138d9c99720100000049483045022100b265993f541d580f10e8820f9986bdd479859fdcb2e636dd1ee1b23506eebeac02202234a6e5141345459c4b4959e921aa85b9fa616f4c44ea15e53d08bf4885259501ffffffff0200e40b5402000000302ea22c8020e029c511da55523565835887e412e5a0c9b920801b007000df45e545f25028248103120c008203000401cce06d66fa15090000232103fe754763c176e1339a3f62ee6b9484720e17ee4646b65a119e9f6370c7004abcac00000000\n")])])]),t("blockquote",[t("p",[e._v("Response from Step 2:")])]),e._v(" "),t("div",{staticClass:"language- extra-class"},[t("pre",{pre:!0,attrs:{class:"language-text"}},[t("code",[e._v("    f2baf8d9a1eaf42bb1a85462b5699ffc0f04e8c54aafc4661767df96be9022b7\n")])])]),t("blockquote",[t("p",[e._v("Step 3: Decode raw transaction (optional to check if the values are sane)")])]),e._v(" "),t("div",{staticClass:"language- extra-class"},[t("pre",{pre:!0,attrs:{class:"language-text"}},[t("code",[e._v("./komodo-cli -ac_name=HELLOWORLD decoderawtransaction 01000000013c34d14c6a32219f4b633a1fe01f5826b3bd7b4cbe01c20cfc0c29138d9c99720100000049483045022100b265993f541d580f10e8820f9986bdd479859fdcb2e636dd1ee1b23506eebeac02202234a6e5141345459c4b4959e921aa85b9fa616f4c44ea15e53d08bf4885259501ffffffff0200e40b5402000000302ea22c8020e029c511da55523565835887e412e5a0c9b920801b007000df45e545f25028248103120c008203000401cce06d66fa15090000232103fe754763c176e1339a3f62ee6b9484720e17ee4646b65a119e9f6370c7004abcac00000000\n")])])]),t("blockquote",[t("p",[e._v("Response from Step 3")])]),e._v(" "),t("div",{staticClass:"language- extra-class"},[t("pre",{pre:!0,attrs:{class:"language-text"}},[t("code",[e._v('{\n    "txid": "f2baf8d9a1eaf42bb1a85462b5699ffc0f04e8c54aafc4661767df96be9022b7",\n    "size": 225,\n    "version": 1,\n    "locktime": 0,\n    "vin": [\n        {\n            "txid": "72999c8d13290cfc0cc201be4c7bbdb326581fe01f3a634b9f21326a4cd1343c",\n            "vout": 1,\n            "scriptSig": {\n                "asm": "3045022100b265993f541d580f10e8820f9986bdd479859fdcb2e636dd1ee1b23506eebeac02202234a6e5141345459c4b4959e921aa85b9fa616f4c44ea15e53d08bf4885259501",\n                "hex": "483045022100b265993f541d580f10e8820f9986bdd479859fdcb2e636dd1ee1b23506eebeac02202234a6e5141345459c4b4959e921aa85b9fa616f4c44ea15e53d08bf4885259501"\n            },\n            "sequence": 4294967295\n        }\n    ],\n    "vout": [\n        {\n            "value": 100.00000000,\n            "valueSat": 10000000000,\n            "n": 0,\n            "scriptPubKey": {\n                "asm": "a22c8020e029c511da55523565835887e412e5a0c9b920801b007000df45e545f25028248103120c008203000401 OP_CHECKCRYPTOCONDITION",\n                "hex": "2ea22c8020e029c511da55523565835887e412e5a0c9b920801b007000df45e545f25028248103120c008203000401cc",\n                "reqSigs": 1,\n                "type": "cryptocondition",\n                "addresses": [\n                    "R9zHrofhRbub7ER77B7NrVch3A63R39GuC"\n                ]\n            }\n        },\n        {\n            "value": 99899.99980000,\n            "valueSat": 9989999980000,\n            "n": 1,\n            "scriptPubKey": {\n                "asm": "03fe754763c176e1339a3f62ee6b9484720e17ee4646b65a119e9f6370c7004abc OP_CHECKSIG",\n                "hex": "2103fe754763c176e1339a3f62ee6b9484720e17ee4646b65a119e9f6370c7004abcac",\n                "reqSigs": 1,\n                "type": "pubkey",\n                "addresses": [\n                    "RANyPgfZZLhSjQB9jrzztSw66zMMYDZuxQ"\n                ]\n            }\n        }\n    ]\n}\n')])])]),t("h2",{attrs:{id:"faucetget"}},[t("a",{staticClass:"header-anchor",attrs:{href:"#faucetget","aria-hidden":"true"}},[e._v("#")]),e._v(" faucetget")]),e._v(" "),t("p",[t("strong",[e._v("faucetget")])]),e._v(" "),t("p",[e._v("The "),t("code",[e._v("faucetget")]),e._v(" method requests the "),t("code",[e._v("faucet")]),e._v(" contract to send coins.")]),e._v(" "),t("p",[e._v("The method returns a hex value which must then be broadcast using the "),t("a",{attrs:{href:"#sendrawtransaction"}},[t("code",[e._v("sendrawtransaction")])]),e._v(" method.")]),e._v(" "),t("p",[e._v("A "),t("code",[e._v("faucet")]),e._v(" command yields 0.1 coins and requires about 30 seconds of CPU time.")]),e._v(" "),t("h3",{attrs:{id:"arguments-3"}},[t("a",{staticClass:"header-anchor",attrs:{href:"#arguments-3","aria-hidden":"true"}},[e._v("#")]),e._v(" Arguments:")]),e._v(" "),t("table",[t("thead",[t("tr",[t("th",[e._v("Structure")]),e._v(" "),t("th",[e._v("Type")]),e._v(" "),t("th",[e._v("Description")])])]),e._v(" "),t("tbody",[t("tr",[t("td",[e._v("(none)")]),e._v(" "),t("td"),e._v(" "),t("td")])])]),e._v(" "),t("h3",{attrs:{id:"response-3"}},[t("a",{staticClass:"header-anchor",attrs:{href:"#response-3","aria-hidden":"true"}},[e._v("#")]),e._v(" Response:")]),e._v(" "),t("table",[t("thead",[t("tr",[t("th",[e._v("Structure")]),e._v(" "),t("th",[e._v("Type")]),e._v(" "),t("th",[e._v("Description")])])]),e._v(" "),t("tbody",[t("tr",[t("td",[e._v("result")]),e._v(" "),t("td",[e._v("(string)")]),e._v(" "),t("td",[e._v("whether the command executed successfully")])]),e._v(" "),t("tr",[t("td",[e._v("hex")]),e._v(" "),t("td",[e._v("(string)")]),e._v(" "),t("td",[e._v("the data in hex-encoded format; you must broadcast this hex using sendrawtransaction for the command to complete")])])])]),e._v(" "),t("h3",{attrs:{id:"examples-3"}},[t("a",{staticClass:"header-anchor",attrs:{href:"#examples-3","aria-hidden":"true"}},[e._v("#")]),e._v(" Examples:")]),e._v(" "),t("blockquote",[t("p",[e._v("Step 1: Use faucetget and get the raw HEX value")])]),e._v(" "),t("div",{staticClass:"language- extra-class"},[t("pre",{pre:!0,attrs:{class:"language-text"}},[t("code",[e._v("./komodo-cli -ac_name=HELLOWORLD faucetget\n")])])]),t("blockquote",[t("p",[e._v("Response from Step 1:")])]),e._v(" "),t("div",{staticClass:"language- extra-class"},[t("pre",{pre:!0,attrs:{class:"language-text"}},[t("code",[e._v('{\n  "result": "success",\n  "hex": "01000000010941cea65a560aeae02f0d49770965490bd99eeac4185f25075685da58e99d40000000007b4c79a276a072a26ba067a565802103682b255c40d0cde8faee381a1a50bbb89980ff24539cb8518e294d3a63cefe128140150ad95012ad8fae990096787d75d563977cef914e812e9dc8b6236243ac5f0050b3af4f2675ad433dcff4be16d113fb9a46357ee60682ed5d76c60f9ccffe8ea100af038001e4a10001ffffffff02b077a43018090000302ea22c8020e029c511da55523565835887e412e5a0c9b920801b007000df45e545f25028248103120c008203000401cc00e1f50500000000232103fe754763c176e1339a3f62ee6b9484720e17ee4646b65a119e9f6370c7004abcac00000000"\n  }\n')])])]),t("blockquote",[t("p",[e._v("Step 2: Broadcast/send the raw transaction")])]),e._v(" "),t("div",{staticClass:"language- extra-class"},[t("pre",{pre:!0,attrs:{class:"language-text"}},[t("code",[e._v("./komodo-cli -ac_name=HELLOWORLD sendrawtransaction 01000000010941cea65a560aeae02f0d49770965490bd99eeac4185f25075685da58e99d40000000007b4c79a276a072a26ba067a565802103682b255c40d0cde8faee381a1a50bbb89980ff24539cb8518e294d3a63cefe128140150ad95012ad8fae990096787d75d563977cef914e812e9dc8b6236243ac5f0050b3af4f2675ad433dcff4be16d113fb9a46357ee60682ed5d76c60f9ccffe8ea100af038001e4a10001ffffffff02b077a43018090000302ea22c8020e029c511da55523565835887e412e5a0c9b920801b007000df45e545f25028248103120c008203000401cc00e1f50500000000232103fe754763c176e1339a3f62ee6b9484720e17ee4646b65a119e9f6370c7004abcac00000000\n")])])]),t("blockquote",[t("p",[e._v("Response from Step 2:")])]),e._v(" "),t("div",{staticClass:"language- extra-class"},[t("pre",{pre:!0,attrs:{class:"language-text"}},[t("code",[e._v("faucetget validated\n64760e66c49df97eea14896ecdd505d2d78ea214eb583c8a6a0ac863b2b989b3\n")])])]),t("blockquote",[t("p",[e._v("Step 3: Decode the raw transaction (optional to check if the value are sane)")])]),e._v(" "),t("div",{staticClass:"language- extra-class"},[t("pre",{pre:!0,attrs:{class:"language-text"}},[t("code",[e._v("./komodo-cli -ac_name=HELLOWORLD decoderawtransaction 01000000010941cea65a560aeae02f0d49770965490bd99eeac4185f25075685da58e99d40000000007b4c79a276a072a26ba067a565802103682b255c40d0cde8faee381a1a50bbb89980ff24539cb8518e294d3a63cefe128140150ad95012ad8fae990096787d75d563977cef914e812e9dc8b6236243ac5f0050b3af4f2675ad433dcff4be16d113fb9a46357ee60682ed5d76c60f9ccffe8ea100af038001e4a10001ffffffff02b077a43018090000302ea22c8020e029c511da55523565835887e412e5a0c9b920801b007000df45e545f25028248103120c008203000401cc00e1f50500000000232103fe754763c176e1339a3f62ee6b9484720e17ee4646b65a119e9f6370c7004abcac00000000\n")])])]),t("blockquote",[t("p",[e._v("Response from Step 3:")])]),e._v(" "),t("div",{staticClass:"language- extra-class"},[t("pre",{pre:!0,attrs:{class:"language-text"}},[t("code",[e._v('{\n    "txid": "64760e66c49df97eea14896ecdd505d2d78ea214eb583c8a6a0ac863b2b989b3",\n    "size": 275,\n    "version": 1,\n    "locktime": 0,\n    "vin": [\n        {\n            "txid": "409de958da855607255f18c4ea9ed90b49650977490d2fe0ea0a565aa6ce4109",\n            "vout": 0,\n            "scriptSig": {\n                "asm": "a276a072a26ba067a565802103682b255c40d0cde8faee381a1a50bbb89980ff24539cb8518e294d3a63cefe128140150ad95012ad8fae990096787d75d563977cef914e812e9dc8b6236243ac5f0050b3af4f2675ad433dcff4be16d113fb9a46357ee60682ed5d76c60f9ccffe8ea100af038001e4a10001",\n                "hex": "4c79a276a072a26ba067a565802103682b255c40d0cde8faee381a1a50bbb89980ff24539cb8518e294d3a63cefe128140150ad95012ad8fae990096787d75d563977cef914e812e9dc8b6236243ac5f0050b3af4f2675ad433dcff4be16d113fb9a46357ee60682ed5d76c60f9ccffe8ea100af038001e4a10001"\n            },\n            "sequence": 4294967295\n        }\n    ],\n    "vout": [\n        {\n            "value": 99994.99950000,\n            "valueSat": 9999499950000,\n            "n": 0,\n            "scriptPubKey": {\n                "asm": "a22c8020e029c511da55523565835887e412e5a0c9b920801b007000df45e545f25028248103120c008203000401 OP_CHECKCRYPTOCONDITION",\n                "hex": "2ea22c8020e029c511da55523565835887e412e5a0c9b920801b007000df45e545f25028248103120c008203000401cc",\n                "reqSigs": 1,\n                "type": "cryptocondition",\n                "addresses": [\n                    "R9zHrofhRbub7ER77B7NrVch3A63R39GuC"\n                ]\n            }\n        },\n        {\n            "value": 1.00000000,\n            "valueSat": 100000000,\n            "n": 1,\n            "scriptPubKey": {\n                "asm": "03fe754763c176e1339a3f62ee6b9484720e17ee4646b65a119e9f6370c7004abc OP_CHECKSIG",\n                "hex": "2103fe754763c176e1339a3f62ee6b9484720e17ee4646b65a119e9f6370c7004abcac",\n                "reqSigs": 1,\n                "type": "pubkey",\n                "addresses": [\n                    "RANyPgfZZLhSjQB9jrzztSw66zMMYDZuxQ"\n                ]\n            }\n        }\n    ]\n}\n')])])]),t("h2",{attrs:{id:"faucetinfo"}},[t("a",{staticClass:"header-anchor",attrs:{href:"#faucetinfo","aria-hidden":"true"}},[e._v("#")]),e._v(" faucetinfo")]),e._v(" "),t("p",[t("strong",[e._v("faucetinfo")])]),e._v(" "),t("p",[e._v("The "),t("code",[e._v("faucetinfo")]),e._v(" method displays the balance of funds in the chain's faucet.")]),e._v(" "),t("h3",{attrs:{id:"arguments-4"}},[t("a",{staticClass:"header-anchor",attrs:{href:"#arguments-4","aria-hidden":"true"}},[e._v("#")]),e._v(" Arguments:")]),e._v(" "),t("table",[t("thead",[t("tr",[t("th",[e._v("Structure")]),e._v(" "),t("th",[e._v("Type")]),e._v(" "),t("th",[e._v("Description")])])]),e._v(" "),t("tbody",[t("tr",[t("td",[e._v("(none)")]),e._v(" "),t("td"),e._v(" "),t("td")])])]),e._v(" "),t("h3",{attrs:{id:"response-4"}},[t("a",{staticClass:"header-anchor",attrs:{href:"#response-4","aria-hidden":"true"}},[e._v("#")]),e._v(" Response:")]),e._v(" "),t("table",[t("thead",[t("tr",[t("th",[e._v("Structure")]),e._v(" "),t("th",[e._v("Type")]),e._v(" "),t("th",[e._v("Description")])])]),e._v(" "),t("tbody",[t("tr",[t("td",[e._v("result")]),e._v(" "),t("td",[e._v("(string)")]),e._v(" "),t("td",[e._v("whether the command executed successfully")])]),e._v(" "),t("tr",[t("td",[e._v("name")]),e._v(" "),t("td",[e._v("(string)")]),e._v(" "),t("td",[e._v("the name of the faucet contract")])]),e._v(" "),t("tr",[t("td",[e._v("funding")]),e._v(" "),t("td",[e._v("(number)")]),e._v(" "),t("td",[e._v("the amount of funds available in the faucet")])])])]),e._v(" "),t("h3",{attrs:{id:"examples-4"}},[t("a",{staticClass:"header-anchor",attrs:{href:"#examples-4","aria-hidden":"true"}},[e._v("#")]),e._v(" Examples:")]),e._v(" "),t("blockquote",[t("p",[e._v("Command:")])]),e._v(" "),t("div",{staticClass:"language- extra-class"},[t("pre",{pre:!0,attrs:{class:"language-text"}},[t("code",[e._v("./komodo-cli -ac_name=HELLOWORLD faucetinfo\n")])])]),t("blockquote",[t("p",[e._v("Response:")])]),e._v(" "),t("div",{staticClass:"language- extra-class"},[t("pre",{pre:!0,attrs:{class:"language-text"}},[t("code",[e._v('{\n  "result": "success",\n  "name": "Faucet",\n  "funding": "200207.99860023"\n}\n')])])])])}],!1,null,null,null);s.options.__file="_130-cc-faucet.md";a.default=s.exports}}]);